:060000000A128A110C280F
:10000800FE00030EF1000A08F2000A128A111628EF
:100018000A128A110F28F601F701F80183010A1262
:100028008A11B128831203130C1F1B281C281F28B0
:100038001E08F6000C138C1D22282328732814127E
:10004800141B272828282C28941F2B282C283128D3
:100058001308F80014139413141683160313941A30
:1000680036283728512814193A283B285128831252
:1000780003131308F8008C11141683160313141CA9
:100088004628472841288312031313088800A630FE
:10009800F000F00B4D2800007028941A54285528B9
:1000A8007028141D58285928702883120313130820
:1000B800F800831603131410831203130608930021
:1000C8001416A630F000F00B6728000083160313FF
:1000D80014186F2870286A28831203138C11720869
:1000E8008A00710E8300FE0E7E0E09007408803AA5
:1000F800FF0080307F02031D83280E30730203182F
:100108008628872893287308F500F50DF50D8312C6
:1001180003131F087506C33975069F009728C33057
:10012800831203139F05831603131F129F12831252
:1001380003131F083F3980389F00831603139F134A
:10014800831203131F140C130B17831603130C17B6
:100158008B17831203139F1408000A128A11DD20DB
:100168000A128A1176088312031386009F18BD2885
:10017800BE28CB28033083120313A1009730A000B8
:10018800A00BC428A10BC428831203139F140630A4
:1001980083120313A2001330A100AD30A000A00BFE
:1001A800D328A10BD328A20BD328B6280A128A1168
:1001B8000C2883160317880189010030F300F40026
:1001C8000A128A117A200A128A1183160317081450
:1001D80001308316031385008601880183120313F7
:1001E8008501860188017030831603138F040F146C
:1001F80050300A128A1103210A128A110800F300EA
:100208007308831603139300363083120313940084
:100218008030831603139400013091008715071668
:100228008B170B17831203138C11831603138C156A
:020238000800BC
:08400000FF3FFF3FFF3FFF3FC0
:04400E00D420FF3F7C
:00000001FF
