:060000000A128A110C280F
:10000800FE00030EF1000A08F2000A128A11C12E3E
:100018000A128A110F280A128A1519260A128A1139
:10002800E9000A128A151A260A128A11EA000A1227
:100038008A151B260A128A11EB000A128A151C2639
:100048000A128A11EC000A128A151D260A128A1150
:10005800ED000A128A151E260A128A11EE00831371
:100068002030840052300A128A151F260A128A117B
:10007800FA0183010A128A1141280A128A15F02608
:100088000A128A110A128A1110270A128A110A12F0
:100098008A154C260A128A11D03083120313AE0037
:1000A800D130FA000A128A1527260A128A1150300E
:1000B800F3000030F4000A128A1542260A128A1147
:1000C800831203132608E600E7016608F3006708B1
:1000D800F4000A128A1542260A128A110A128A158F
:1000E80030260A128A11823083120313E700DD30AA
:1000F800E600E60B7D28E70B7D280A128A152726DD
:100108000A128A115130F3000030F4000A128A15DD
:1001180042260A128A110030F300F4000A128A15E6
:100128001D270A128A11730883120313A5000A12E5
:100138008A1530260A128A11823083120313E700C7
:10014800DD30E600E60BA628E70BA628831203138A
:100158002408E600E7016608D9006708DA000A12F1
:100168008A111A260A128A11831203135A08E20006
:100178005908E10001300A128A15C1270A128A11AA
:10018800831203132308E600E7016608D90067080D
:10019800DA000A128A111A260A128A118312031324
:1001A8005A08E2005908E10002300A128A15C127EC
:1001B8000A128A11831203132208E600E70166086F
:1001C800D9006708DA000A128A111A260A128A1157
:1001D800831203135A08E2005908E10004300A1296
:1001E8008A15C1270A128A11831203132108E6000F
:1001F800E7016608D9006708DA000A128A111A2688
:100208000A128A11831203135A08E2005908E100FE
:1002180005300A128A15C1270A128A11831203139C
:100228002008E600E7016608D9006708DA000A1224
:100238008A111A260A128A11831203135A08E20035
:100248005908E10006300A128A15C1270A128A11D4
:1002580000300A128A1170260A128A1183120313B7
:1002680052080A128A157B260A128A11831203136E
:10027800AC00823083120313E700DD30E600E60BA2
:100288004329E70B432901300A128A1170260A1202
:100298008A118312031352080A128A157B260A123E
:1002A8008A1183120313AB00823083120313E70011
:1002B800DD30E600E60B5E29E70B5E2902300A1204
:1002C8008A1170260A128A118312031352080A121D
:1002D8008A157B260A128A1183120313AA00823018
:1002E80083120313E700DD30E600E60B7929E70BFC
:1002F800792904300A128A1170260A128A11831287
:10030800031352080A128A157B260A128A118312CD
:100318000313A900823083120313E700DD30E600DF
:10032800E60B9429E70B942905300A128A117026E6
:100338000A128A118312031352080A128A157B269D
:100348000A128A1183120313A8008230831203133E
:10035800E700DD30E600E60BAF29E70BAF290630F2
:100368000A128A1170260A128A118312031352087C
:100378000A128A157B260A128A1183120313A70010
:10038800823083120313E700DD30E600E60BCA294A
:10039800E70BCA29163083120313D9002508E60093
:1003A800E7016608DA006708DB004D300A128A1197
:1003B800D6240A128A11163083120313D9002C0886
:1003C800E600E7016608DA006708DB0048300A1231
:1003D8008A11D6240A128A11163083120313D900FF
:1003E8002B08E600E7016608DA006708DB004330FF
:1003F8000A128A11D6240A128A111630831203139C
:10040800D9002A08E600E7016608DA006708DB0079
:100418003E300A128A11D6240A128A111630831223
:100428000313D9002908E600E7016608DA0067081F
:10043800DB0039300A128A11D6240A128A111630C2
:1004480083120313D9002808E600E7016608DA00DA
:100458006708DB0034300A128A11D6240A128A117E
:10046800163083120313D9002708E600E70166084F
:10047800DA006708DB002F300A128A11D6240A1224
:100488008A110A128A154C260A128A11F701F70AEC
:1004980001300A128A15AB260A128A110F30F700AA
:1004A8008030F8000A128A11A1270A128A11F7016E
:1004B800F70A02300A128A15AB260A128A114D3041
:1004C800F7000030F8000A128A11A1270A128A11CF
:1004D8000A308312031327020318732A742A972AEF
:1004E8000D30F70002300A128A15AB260A128A115B
:1004F8000B30F7008030F8000A128A11A1270A127F
:100508008A111030F70002300A128A15AB260A1237
:100518008A112F30F7000030F8000A128A11A1273B
:100528000A128A11B92A0D30F70002300A128A1508
:10053800AB260A128A111330F7008030F8000A122D
:100548008A11A1270A128A110F30F70002300A1205
:100558008A15AB260A128A112F30F7000030F800EE
:100568000A128A11A1270A128A110C30F7000230E8
:100578000A128A15AB260A128A111930F700803040
:10058800F8000A128A11A1270A128A110A30831266
:10059800031328020318D12AD22AF52A0A30F700B1
:1005A80002300A128A15AB260A128A110D30F7009A
:1005B8008030F8000A128A11A1270A128A110B301A
:1005C800F70002300A128A15AB260A128A11343053
:1005D800F7000030F8000A128A11A1270A128A11BE
:1005E800062B0A30F70002300A128A15AB260A12C7
:1005F8008A113430F7000030F8000A128A11A12756
:100608000A128A110930F70002300A128A15AB263D
:100618000A128A111930F7008030F8000A128A117C
:10062800A1270A128A110A30831203132902031818
:100638001E2B1F2B422B0730F70002300A128A1597
:10064800AB260A128A110D30F7008030F8000A1222
:100658008A11A1270A128A110830F70002300A12FB
:100668008A15AB260A128A113930F7000030F800D3
:100678000A128A11A1270A128A11532B0730F70090
:1006880002300A128A15AB260A128A113930F7008D
:100698000030F8000A128A11A1270A128A110A30BA
:1006A800831203132A0203185A2B5B2B7E2B093063
:1006B800F70001300A128A15AB260A128A110D308A
:1006C800F7008030F8000A128A11A1270A128A114D
:1006D8000A30F70001300A128A15AB260A128A116D
:1006E8003E30F7000030F8000A128A11A1270A12DA
:1006F8008A118F2B0930F70001300A128A15AB26B0
:100708000A128A113E30F7000030F8000A128A11E6
:10071800A1270A128A110B30F70001300A128A1534
:10072800AB260A128A111B30F7008030F8000A1233
:100738008A11A1270A128A110A30831203132B0285
:100748000318A72BA82BCB2B0C30F70001300A126B
:100758008A15AB260A128A110D30F7008030F8008E
:100768000A128A11A1270A128A110D30F7000130E6
:100778000A128A15AB260A128A114330F700003094
:10078800F8000A128A11A1270A128A11DC2B0C30F0
:10079800F70001300A128A15AB260A128A11433073
:1007A800F7000030F8000A128A11A1270A128A11EC
:1007B8000E30F70001300A128A15AB260A128A1188
:1007C8001B30F7008030F8000A128A11A1270A129C
:1007D8008A110A30831203132C020318F42BF52B09
:1007E800182C0F30F70001300A128A15AB260A12AE
:1007F8008A110D30F7008030F8000A128A11A127FB
:100808000A128A111030F70001300A128A15AB2635
:100818000A128A114830F7000030F8000A128A11CB
:10082800A1270A128A11292C0F30F70001300A1269
:100838008A15AB260A128A114830F7000030F800F2
:100848000A128A11A1270A128A110230831203138D
:10085800E8000430E700B930E600E60B312CE70B7E
:10086800312CE80B312C382C3C30831203132B022B
:10087800031C3F2C402C412CA40119302A02031CD4
:10088800462C472C482CA30120302902031C4D2C50
:100898004E2C4F2CA2010D302802031C542C552C31
:1008A800562CA1013B302C02031C5B2C5C2C602CC9
:1008B8000130E6006608A4073B302B02031C652CB8
:1008C800662C712C3B302C02031C6B2C6C2C712C6D
:1008D800A4010130E6006608A30718302A02031CA9
:1008E800762C772C892C3B302B02031C7C2C7D2CFE
:1008F800892C3B302C02031C822C832C892CA401CC
:10090800A3010130E6006608A2071F302902031C74
:100918008E2C8F2CA82C18302A02031C942C952C72
:10092800A82C3B302B02031C9A2C9B2CA82C3B3068
:100938002C02031CA02CA12CA82CA401A301A20109
:100948000130E6006608A1070C302802031CAD2C14
:10095800AE2CCE2C1F302902031CB32CB42CCE2C69
:1009680018302A02031CB92CBA2CCE2C3B302B028F
:10097800031CBF2CC02CCE2C3B302C02031CC52CD6
:10098800C62CCE2CA401A301A201A1010130E600CE
:100998006608A0070130E6006608A60756280A126E
:1009A8008A110C2883120313E4005A30DF009D2DAE
:1009B800253065060319E12CE22CEC2C6408840030
:1009C8006508831380000130DC005C08E4079D2D76
:1009D800E0010130D907FF30590784000A128A154F
:1009E8000A200A128A11E500DC00DD015D08003AE0
:1009F8000319FF2C9D2D5C08003A0319AD2D643AAC
:100A080003190A2D0D3A03190A2D9D2D5F0884003C
:100A180083130008E200840A0008E3000230DC00C7
:100A28005C08DF07E31F192D1A2D232D0330DC0086
:100A38005C08E004E209E309E20A0319E30AE501B4
:100A4800E50A6508DC005C07013E84000A128A1585
:100A58000A200A128A11DD000A128A150A200A12CF
:100A68008A11DE005E086302031D3C2D5D086202E8
:100A780003183F2D402D412D4B2D0130DC005C0823
:100A8800E50705306506031D4A2D4B2D252D600809
:100A980003390319502D512D5A2D640884002D3027
:100AA800831380000130DC005C08E4076508E1007E
:100AB800942D0A30D5000030D6006108DC005C07B0
:100AC800013E84000A128A150A200A128A11F300CC
:100AD8000A128A150A200A128A11F4006308F6001D
:100AE8006208F5000A128A115B270A128A11740833
:100AF80083120313D8007308D7000A128A158527B2
:100B08000A128A11831203135508303EE50064085F
:100B180084006508831380000130DC005C08E4076A
:100B2800FF30DC005C08E107610A031D9C2D9D2D48
:100B38005D2D0130D907FF30590784000A128A1544
:100B48000A200A128A11E5006508031DAC2DAD2D97
:100B5800DC2C640884008313800108000030F7004F
:100B68000030F6000030F5000030F4008312031363
:100B780055085404530452040319C32DC42D112ECF
:100B8800F801F80AD42D0130F3000310D20DD30D6B
:100B9800D40DD50DF30BC92D0130F3007308F807F8
:100BA800D51FD72DD82DC72D0130F3000310F40D14
:100BB800F50DF60DF70DF30BDA2D55085902031D47
:100BC800EF2D54085802031DEF2D53085702031D3B
:100BD800EF2D52085602031CF22DF32D022E520857
:100BE800D6025308031C530FD7025408031C540F92
:100BF800D8025508031C550FD9027414013003108C
:100C0800D50CD40CD30CD20CFF3E031D032E01309F
:100C1800F802031D102E112ED82D7708D50076085E
:100C2800D4007508D3007408D20008008312031397
:100C3800DD01DE010130DF000030E000652E0A3002
:100C4800D5000030D6005A08D8005908D7000A1233
:100C58008A1585270A128A11831203135608DC00A5
:100C68005508DB005C08F4005B08F3006008F60038
:100C78005F08F5000A128A15CB260A128A11730832
:100C880083120313DD070318DE0A7408DE07043035
:100C98000310DF0DE00DFF3E031D4C2E0A30F3005C
:100CA8000030F4005A08F6005908F5000A128A11B3
:100CB8005B270A128A11740883120313DA00730877
:100CC800D90059085A04031D6A2E6B2E232E5E087C
:100CD800DA005D08D900080083120313D6000A124F
:100CE8008A1527260A128A11831203132E08D400A4
:100CF800D5015408F3005508F4000A128A15422653
:100D08000A128A11831203135608D400D501540815
:100D1800F3005508F4000A128A1542260A128A11AD
:100D28000A128A1539260A128A117A0883120313BD
:100D3800D400D5015408F3005508F4000A128A15A6
:100D480042260A128A110030F300F4000A128A15AA
:100D58001D270A128A11740883120313D800730816
:100D6800D7000A128A1530260A128A118312031331
:100D78005808D3005708D20008000B1CC42EC52EF3
:100D8800092F831203130618CA2ECB2ED42E061C45
:100D9800CE2ECF2ECB2E0130F0007008A407082FDE
:100DA8008618D72ED82EE12E861CDB2EDC2ED82EC8
:100DB8000130F0007008A307082F0619E42EE52E6D
:100DC800EE2E061DE82EE92EE52E0130F000700803
:100DD800A207082F8619F12EF22EFB2E861DF52E5E
:100DE800F62EF22E0130F0007008A107082F061A1F
:100DF800FE2EFF2E082F061E022F032FFF2E013076
:100E0800F0007008A007082F0B1072088A00710EF6
:100E18008300FE0E7E0E090000300A128A15132682
:100E28000A128A113430F800F130F700F70B1A2F44
:100E3800F80B1A2F1F2F30300A128A1591260A1222
:100E48008A110D30F800FB30F700F70B292FF80B4B
:100E5800292F2E2F30300A128A1591260A128A114C
:100E68001D30F8009130F700F70B382FF80B382FAA
:100E780030300A128A1591260A128A113C300A1259
:100E88008A1591260A128A110C300A128A1591269F
:100E98000A128A1101300A128A1591260A128A1139
:100EA80006300A128A1591260A128A11080083123E
:100EB8000313D301D401730874040319642F652F35
:100EC8009C2FD201D20A732F01300310F30DF40DB9
:100ED800FF3E031D692F0130F7007708D207F41F82
:100EE800762F772F682F01300310D30DD40DFF3ED6
:100EF800031D782F74087602031D842F730875026A
:100F0800031C872F882F8F2F7308F5027408031C82
:100F1800F603F602531401300310F40CF30CFF3EF1
:100F2800031D902F0130D202031D9B2F9C2F772F7A
:100F38005408F4005308F300080083120313D50182
:100F4800D601CA2F55087707D3007808D2000318AE
:100F5800D20AD51FB02FD203831203135208D4002C
:100F68005408FF00530884000A128A1500200A1248
:100F78008A110A128A11E7270A128A11013083128C
:100F88000313D5070318D60A0030D6075508770784
:100F9800D3007808D2000318D20AD51FD42FD20361
:100FA800831203135208D4005408FF005308840026
:100FB8000A128A1500200A128A11003A031DE52F29
:100FC800E62FA62F0800F6007608F5008312031313
:100FD800091475080A128A1513260A128A1183122F
:100FE800031389141A30F400F40BF82F000083124D
:060FF8000313891008003C
:10100000FF1B0A2883137F1883170008840A03191B
:10101000FF0A080008308A000408840A82070034A6
:10102000013400340A34003464340034E8340334C6
:1010300010342734323430343034003441344434C2
:1010400043340034323430340034253464340034D2
:081050002F3400343A3400345F
:101C2600F300730883120313880008000634053492
:101C3600043402340134683464008001840A0406E2
:101C4600031900340406202E0A128A1559260A1290
:101C56008A1583160313111408000A128A155926C9
:101C66000A128A1583160313111508000A128A151B
:101C760059260A128A1583160313911408000A12AC
:101C86008A1559260A128A157308831203139300BC
:101C9600080000300A128A1591260A128A150130A8
:101CA6000A128A1591260A128A150800831603134A
:101CB60014195E2E5F2E592E11081F39031D642E2E
:101CC600652E592E0800F600F501761C6B2E6C2E3B
:101CD600702E7308F4007408F5070310F30D031053
:101CE600F60C7608031D782E792E682E75080800E6
:101CF600F9000F307905F7000A30F3007908F8008B
:101D060004300310F80CFF3E031D842E78080A12D7
:101D16008A1566260A128A1577070800F6008312C6
:101D26000313091076080A128A1513260A128A1551
:101D36008312031389140B30F5006230F400F40BA0
:101D4600A22EF50BA22E00008312031389100800A1
:101D5600F8007803031DB02EB12EBB2E77087F3E08
:101D6600F90079080A128A1591260A128A15CA2ECE
:101D760002307806031DC02EC12ECA2E7708BF3E3C
:101D8600F90079080A128A1591260A128A1508009E
:101D9600F701F801731CD02ED12ED72E7508F70740
:101DA6000318F80A7608F80701300310F50DF60D4A
:101DB600FF3E031DD82E01300310F40CF30CFF3E3A
:101DC600031DDF2E73087404031DEA2EEB2ECD2EA1
:101DD6007808F4007708F3000800831603178801D3
:101DE6008901831603138501FF3086008801890166
:101DF6008312031385018601880189018316031363
:101E06008113FF30960070308F040F140B108B1562
:101E16008B170B17003083120313DD000130DC0033
:101E26008630DB00A030DA000A128A154B270A1228
:101E36008A1508000A128A1559260A128A15831667
:101E4600031391150A128A1559260A128A15831246
:101E560003131308F500F6017508F7007608F80075
:101E66000A128A1559260A128A1573037404031D69
:101E76003D2F3E2F422F831603139112452F8316B3
:101E86000313911611167808F4007708F30008007A
:101E960028308312031394008316031391018312CF
:101EA60003135A08DE005B08DF005C08E0005D08EB
:101EB600E10002300310DE0DDF0DE00DE10DFF3E07
:101EC600031D5D2F6108D5006008D4005F08D300AC
:101ED6005E08D2000030D9007A30D8001230D70020
:101EE6000030D6000A128A11B2250A128A15831208
:101EF60003135208FF3E83160313930094018715BC
:101F060007160800831203135508560403198C2F6D
:101F16008D2FBC2FF901F90A9B2F01300310D50D27
:101F2600D60DFF3E031D912F0130F8007808F90702
:101F3600D61F9E2F9F2F902F56085802031DA52FA0
:101F460055085702031CA82FA92FAF2F5508D702F3
:101F56005608031CD803D80201300310D60CD50C42
:101F6600FF3E031DB02F0130F902031DBB2FBC2F0E
:101F76009F2F5808D6005708D50008008312031370
:101F8600E5000A128A1527260A128A1583120313F8
:101F96002E08E300E4016308F3006408F4000A1263
:101FA6008A1542260A128A15831203136508E3006E
:101FB600E4016308F3006408F4000A128A15422655
:101FC6000A128A15831203136208F4006108F300EB
:101FD6000A128A1542260A128A150A128A1530260C
:101FE6000A128A15823083120313E400DD30E300FF
:0A1FF600E30BFB2FE40BFB2F0800A8
:08400000FF3FFF3FFF3FFF3FC0
:04400E00D420FF3F7C
:00000001FF
